:100000000C9472000C949A000C949A000C949A0030
:100010000C949A000C949A000C949A000C949A00F8
:100020000C949A000C949A000C949A000C949A00E8
:100030000C949A000C949A000C949A000C949A00D8
:100040000C9457190C949A000C9418180C94F217ED
:100050000C949A000C949A000C949A000C949A00B8
:100060000C949A000C949A00005EBCE2613FDD8320
:10007000C29C7E20A3FD1F41009D23BE46DB65F888
:100080008C11AF32CA57E974000000002400270029
:100090002A0000000000250028002B0000000008B6
:1000A000000201000003040700000000000000003F
:1000B00000000000230026002900040404040404B6
:1000C0000404020202020202030303030303010207
:1000D00004081020408001020408102001020408D6
:1000E00010205B2611241FBECFEFD8E0DEBFCDBFAE
:1000F00013E0A0E0B1E0E2EAFEE502C005900D9257
:10010000A03FB107D9F726E0A0EFB3E001C01D92F0
:10011000A734B207E1F710E0C2E7D0E004C02197AE
:10012000FE010E947D2AC137D107C9F70E94E61D52
:100130000C944F2F0C940000CF93DF931F92CDB7F8
:10014000DEB76983DC01ED91FC910280F381E02D43
:1001500041E050E0BE016F5F7F4F09950F90DF9146
:10016000CF910895FC01848595850895FC018489CB
:10017000958908952BEF31E0FC0131832083FB0149
:100180004089518962897389FC0142835383648366
:1001900075830895DC01ED91FC91048CF58DE02DC3
:1001A000099480E00895982F80ED890F8A3020F01F
:1001B00081EA890F8C3110F481E008958FEB890F6B
:1001C0008A31D0F39B32C1F381E09D3221F09E321F
:1001D00019F080E0089508950895FC018285811149
:1001E00017C0A281B38184819581A817B90738F41B
:1001F000CD010196938382832C9130E002C02FEFD2
:100200003FEF37FF02C020E030E0218781E08287A6
:10021000818508951F93CF93DF93EC01CE010E9457
:10022000ED008B302CF489300CF58823C1F032C0FE
:100230008032E1F08F3219F08D3061F517C01A86E7
:10024000CE010E94ED008A3219F08F32C9F01FC032
:100250001A8610E0CE010E94ED00811103C081E0FA
:1002600090E01AC08F3221F4112311F01A86D6CFF4
:1002700011E08A3209F010E01A86ECCF8A3071F270
:100280001A86CE010E94ED008111F8CFE8CF82E0FE
:1002900090E002C080E090E0DF91CF911F9108953F
:1002A000FC01768765870895DC01ED91FC91068C51
:1002B000F78DE02D099591E089270895862F0895FF
:1002C00081E08627089521E0FC018485843008F0D0
:1002D00020E0822F0895FC0184819581009799F098
:1002E00022813381468157812417350718F0158202
:1002F00014820895A9014F5F5F4F53834283FC012D
:10030000E20FF31F60830895DF92EF92FF920F9345
:100310001F93CF93DF93CDB7DEB728970FB6F8942E
:10032000DEBF0FBECDBF8C017B01DC011696ED91C7
:10033000FC911797228133818481958193838283F5
:10034000FA83E9831C821B823E832D83821B930BDD
:1003500098878F83C8010E94ED00D82EF80112867D
:10036000C8010E94ED00D8011A961C92D81649F1D6
:10037000811103C081E090E047C08C35E1F4C801F1
:100380000E94ED008823B1F3853719F0EDEAF3E020
:1003900006C084E090E038C0891729F03296908139
:1003A0009111FACF06C08181811103C082E090E0F3
:1003B0002BC0F8011286682FCE0101960E946B01B6
:1003C000CFCF60E0CE0101960E946B018D819E81AE
:1003D000892B71F08B819C81E981FA812F8138858D
:1003E000821B930B22813381820F931F938382831D
:1003F0008D819E81D7018D939C93892B19F483E085
:1004000090E002C080E090E028960FB6F894DEBF3E
:100410000FBECDBFDF91CF911F910F91FF90EF9055
:10042000DF9008950895CF93DF93DC01EB01EC8119
:10043000FD818A819B810896E817F90718F480E00E
:1004400090E021C03897FD83EC833097C1F312967A
:10045000CD91DC911397209751F0CF018C1B9D0B10
:1004600023E0959587952A95E1F78D8303C0119632
:10047000FC93EE931396FC93EE93129715821482DD
:1004800017821682CF01DF91CF91089580E090E02E
:100490000895CF92DF92EF92FF92CF93DF93EC011A
:1004A0008C85843038F50E94180B0E944B196B0123
:1004B0007C018C850E94A80F8823D1F061E070E058
:1004C00080E090E00E94F8180E944B19AB01BC013B
:1004D0004C195D096E097F098D859E85A0E0B0E00D
:1004E000481759076A077B0720F38C850E94340B55
:1004F00084E08C87DF91CF91FF90EF90DF90CF90D9
:100500000895CF93DF93EC018C85843060F40E94D2
:10051000A80F873111F08C3131F48C850E94FE0DCB
:100520008115984088F3DF91CF910895FC0184856F
:10053000843010F40C94FE0D80E090E00895CF9389
:10054000DF931F92CDB7DEB741E050E0BE016F5F91
:100550007F4FFC0184850E942D0E181619061CF48D
:10056000898190E002C08FEF9FEF0F90DF91CF91D4
:100570000895FC018485843010F40C942D0E80E0E5
:1005800090E00895CF93DF93FC012485243018F088
:100590008FEF9FEF0EC0EC010190F081E02D008401
:1005A000F185E02D0995892B99F38C850E94A60A87
:1005B00090E0DF91CF910895FC018485843010F4A0
:1005C0000C94E20A80E090E00895CF92DF92EF92DF
:1005D000FF920F931F93CF93DF93CDB7DEB7AF9703
:1005E0000FB6F894DEBF0FBECDBF8C016B017A0150
:1005F000CE0101960E948F148BEF91E09BA78AA7F2
:100600001CA61DA61EA61FA6D8011C968C91843080
:1006100060F40E94A80F882321F0F80184850E94CD
:10062000180B84E0D8011C968C9380918A059091D8
:100630008B05A0918C05B0918D058EA39FA3A8A7D3
:10064000B9A78B839C83AD83BE8318861F82AE01BE
:10065000465D5F4FB601CE0101960E9432120097AF
:10066000C1F0D801ED91FC910684F785E02D8BEF68
:1006700091E09DA38CA38CA59DA5AEA5BFA58EA33F
:100680009FA3A8A7B9A7A701BE016C5D7F4FC801B2
:100690000995AF960FB6F894DEBF0FBECDBFDF91C0
:1006A000CF911F910F91FF90EF90DF90CF90089521
:1006B000DA0190919904E92FF0E0FE2FEE27E60F82
:1006C000F71F90E0982F8827A901BD018E0F9F1F6B
:1006D0000C94B11944E050E0BC018FE090E00C9420
:1006E0003E1A08958CBD9DBD08956F927F928F92A2
:1006F0009F92AF92BF92CF92DF92EF92FF921F93A1
:10070000CF93DF9300D0CDB7DEB7FC011485143052
:1007100008F061C06A014130F8E05F0718F0C12CB1
:1007200028E0D22E7A013B015C01CE0101960E94A5
:10073000501C89819A810E947203812F0E946A0A4B
:100740004C0163E070E0812F0E94200D873111F091
:100750008C3121F48C149D0440F302C0C12CD12CA7
:10076000CE0101960E94501C89819A810E947203D9
:100770009601A30160E070E0812F0E94B20B60E25D
:1007800070E0812F0E94A11962E070E0812F0E9429
:10079000200D84FD16C063E070E0812F0E94200DC3
:1007A000811106C081E090E0F5019383828313C03C
:1007B000CE0101960E94501C89819A810E94720389
:1007C000E3CF40E162E070E0812F0E94ED0CCD2884
:1007D00049F3C70102C080E090E00F900F90DF91D5
:1007E000CF911F91FF90EF90DF90CF90BF90AF908F
:1007F0009F908F907F906F900895AF92BF92CF920D
:10080000DF92EF92FF920F931F93CF93DF9300D06D
:10081000CDB7DEB78C016B015A01FC0184858430B1
:1008200058F40E94A80F882321F0F80184850E94C3
:10083000180B84E0F8018487F60182819381A481FA
:10084000B5810097A105B10509F462C08F3F9F4FA4
:10085000AF4FBF4F09F45CC080914206882339F046
:1008600060E070E081E20E942F0DF82E02C084E06B
:10087000F82EF801F486F3E0FF1508F449C0CE0124
:1008800001960E94501C89819A810E947203A601E0
:100890004E5F5F4F24E030E06CE070E08F2D0E94EF
:1008A000A00BB5018F2D0E947A0C64E070E08F2DB3
:1008B0000E94A1190E944B196B017C01F8018485EB
:1008C0000E94A80F873139F18C3129F1882301F179
:1008D0000E944B19AB01BC014C195D096E097F09DF
:1008E000F80185859685A0E0B0E084179507A607F6
:1008F000B70738F061E070E080E090E00E94F818FF
:10090000DDCFF80184850E94340B84E0F8018487F0
:1009100080E090E002C081E090E00F900F90DF91C6
:10092000CF911F910F91FF90EF90DF90CF90BF90EC
:10093000AF9008950F931F93CF93DF9300D0CDB75F
:10094000DEB78C018BEF91E0F801918380831282F6
:10095000138214821582CE0101960E94501C898157
:100960009A810E947203B8016E5F7F4F44E050E0AD
:100970008FE090E00E94B119C8010F900F90DF91B5
:10098000CF911F910F9108954F925F926F927F9236
:100990008F929F92AF92BF92DF92EF92FF920F934E
:1009A0001F93CF93DF938C01EB0188818B3231F061
:1009B0008D3229F42196EE24E39402C02196E12C95
:1009C000888190ED980F9A3018F08E3209F0D4C0DB
:1009D00060E070E0CB01FE012191A0ED8A2E820E35
:1009E00039E0381508F16A3929E97207820729E1E7
:1009F0009207E0F4AAE0B0E09B01AC010E94E2297A
:100A0000912CA12CB12C2401350140945094609478
:100A10007094461657066806790640F0680D791DF1
:100A20008A1D9B1DEF01D7CF222339F0F12CEAE07C
:100A30008E2E912CA12CB12C13C0F80160837183F0
:100A4000828393830E948228F8016483758386835E
:100A50009783EE2011F08AE001C088E0F801D7C04A
:100A600061157105F0E88F07910540F0A50194012B
:100A70000E94A129CA01B901F394F2CFFE01299184
:100A800030ED320F3A3010F4F394F8CF2E32F1F407
:100A9000EF012196FE012196208150EDD52ED20E38
:100AA00029E02D1598F06C3C3CEC73073CE0830783
:100AB000910580F7AAE0B0E09B01AC010E94E22919
:100AC0006D0D711D811D911DFA94E4CF20812F7D44
:100AD000253409F04CC021812D3221F43296BB24FB
:100AE000B39406C02B3211F0319601C03296B12C6E
:100AF000DF01C0E0D0E04AE0A42E2F2D0F2C000C27
:100B0000330BFD01DD9040ED4D0D4A3050F5AC9EAC
:100B1000A001AD9E500D1124CD2DDD0CDD0BE09715
:100B2000C40FD51FA9014C0F5D1F473251054CF36F
:100B3000BB2059F0EE2029F080E090E0A0E0B0E882
:100B400060C080E090E0DC015CC0E11005C080E0A6
:100B500090E0A0E8BFE755C080E090E0A0E8BFEFDC
:100B600050C0BB2031F0D195C195D10902C0C0E081
:100B7000D0E02081222359F0F801108211821282E4
:100B800013821482158216821782108641C0CF0DFF
:100B9000D11DF7FCDA950E9482281C161D06ACF4C4
:100BA000F12CC0FF0CC024E0F29EF0011124E15DA5
:100BB000FE4F20813181428153810E94E328D595E7
:100BC000C795F394209769F718C0D195C195D109BD
:100BD000F12C209791F0C0FF0CC024E0F29EF001B0
:100BE0001124E95EFE4F20813181428153810E94B0
:100BF000E328D595C795F394ECCFDC01CB01E11048
:100C0000B058F80184839583A683B7838CE08087EE
:100C1000C801DF91CF911F910F91FF90EF90DF906E
:100C2000BF90AF909F908F907F906F905F904F900C
:100C300008950F931F93CF93DF93FC01248125FF29
:100C400020C08B01C081D1812097D9F06E817F8136
:100C500060177107A1F00115110541F061157105CB
:100C600029F0C8010E948C2C882349F08D818823AB
:100C700041F0F8E08F02C00DD11D1124E5CFCE0167
:100C800002C080E090E0DF91CF911F910F91089515
:100C9000FC0180819181892B21F460E070E0CB011F
:100CA000089562E172E080E090E008958F929F9253
:100CB000AF92BF92CF92DF92EF92FF920F931F936A
:100CC000CF93DF93CDB7DEB7CD54D1090FB6F894EB
:100CD000DEBF0FBECDBF8C017B010E940A012E96A4
:100CE0009FAF8EAF2E97CE01845B9F4F0E94480628
:100CF000672B09F092C080FD90C0C8010E94ED00F2
:100D0000873291F4BE016F5B7F4FC8010E9484015E
:100D10009A838983CE0101960E944806672B09F0C9
:100D2000CDC180FDCBC1CDC18832ACF4823251F34C
:100D3000C8010E94ED00C82ECE0101965C01D12CA5
:100D40004C018C2D0E94D300882309F4CCC19FE371
:100D5000D91241C2C8C18B3561F5D70114968C9167
:100D600014978078806414968C93149711961C9233
:100D70001E9213961C921E921297F801808588236A
:100D800079F1C8010E94ED008B3509F074C1D801DA
:100D90001A961C92C8010E940A019A838983CE0187
:100DA00001960E944806672B09F088C180FD86C124
:100DB0003BC08B3709F0BCCFD70114968C911497A8
:100DC0008078806214968C93149711961C921E92D0
:100DD00013961C921E921297F8018085811102C011
:100DE00085E07FC1C8010E94ED008B3709F043C147
:100DF000D8011A961C92C8010E940A012C969FAF36
:100E00008EAF2C97CE01865B9F4F0E944806672BC2
:100E100009F04DC180FD4BC172C02D968FAD2D974D
:100E20002E969FAD2E97E2C1C8010E94ED008D3530
:100E3000B1F1D8016D917C91C7010E941302BC01F0
:100E4000892B09F451C0F801908591509087C80111
:100E50000E9456069A838983D80118968C91189718
:100E60008F5F18968C93CE0101960E944806672BDF
:100E700009F024C180FD22C1C8010E940A019A83A1
:100E80008983CE0101960E944806672B09F016C19E
:100E900080FD14C1C8010E94ED008D3539F5F801BF
:100EA00012861EC1C8010E94ED008C3209F0E3C019
:100EB000F8011286C8010E940A012C969FAF8EAFDE
:100EC0002C97CE01865B9F4F0E944806672B09F046
:100ED000EEC080FDECC0D8016D917C91C7010E94ED
:100EE00013026C01892B89F483E0FBC0C8010E94C6
:100EF000ED008C3209F0BFC0F80112869ACFC8010C
:100F00000E94ED008D3739F7CACFC8010E94ED006D
:100F1000873211F08232A9F4BE016F5B7F4FC801A6
:100F20000E9484012C969FAF8EAF2C97CE01865BDA
:100F30009F4F0E944806672B09F0B9C080FF5BC035
:100F4000B6C0D8011696ED91FC9117972281338196
:100F50008481958193838283FA83E9831C821B8237
:100F60003E832D83821B930B98878F83C8010E9439
:100F7000ED00B82E8823E1F18B2D0E94D300882349
:100F800089F1F80112866B2DCE0101960E946B014A
:100F9000C8010E94ED00B82E0E94D3008111F1CF4C
:100FA00060E0CE0101960E946B018D819E81892BAC
:100FB00071F0E981FA818B819C812F813885821BB8
:100FC000930B22813381820F931F938382838D81C0
:100FD0009E8123969FAF8EAF2397892B31F080E0BF
:100FE00090E0A0CF82E090E09DCF83E090E09ACFA8
:100FF00081E090E097CF23962EAD3FAD2397F60189
:1010000084818068848337832683C8010E940A0113
:101010002C969FAF8EAF2C97CE01865B9F4F0E9480
:101020004806672B09F043C080FD41C0C8010E94FB
:10103000ED008A3301F5D8011A961C921A9718967A
:101040008C911897815018968C93B601C8010E9414
:1010500056062C969FAF8EAF2C97F80180858F5F38
:101060008087CE01865B9F4F0E944806672BF9F46C
:1010700080FF03C01CC082E034C0C8010E940A0186
:101080002C969FAF8EAF2C97CE01865B9F4F0E9410
:101090004806672B61F480FD0AC0C8010E94ED007C
:1010A0008D3709F0FFCED8011A961C9219C02B96E5
:1010B0008FAD2B972C969FAD2C9798C089819A81E4
:1010C00095C023962EAD3FAD2397D70114968C91F2
:1010D00014978078856014968C9314972D933C9385
:1010E00080E090E083C0F401ED0DF11D1082898154
:1010F0008437A1F4D70114968C9114978078866078
:1011000014968C9381E090E0A0E0B0E0F70180833A
:101110009183A283B38390E0F4E012C0863699F401
:10112000D70114968C9114978078866014968C93CE
:10113000F701108211821282138281E090E0F5E0C3
:10114000DF1254C007C08E3639F481E090E024E00D
:10115000D2124CC080E04AC0B401CE018F5B9F4FD9
:101160000E94C40425964CAD5DAD6EAD7FAD259754
:101170002A968FAD2A978A3061F08C30C1F0883082
:1011800009F079CFD70114968C91149780788860F4
:1011900006C0D70114968C91149780788A601496B3
:1011A0008C93F701408351836283738399CF29968F
:1011B0004CAD5DAD6EAD7FAD2997D70114968C9186
:1011C000149780788C6014968C93F7014083518338
:1011D0006283738385CFF8011286D394D501CD92B3
:1011E0005D01C8010E94ED00C82EABCDC35BDF4F8F
:1011F0000FB6F894DEBF0FBECDBFDF91CF911F9128
:101200000F91FF90EF90DF90CF90BF90AF909F90A5
:101210008F9008952091420690E0233311F40C96AC
:1012200001C04896982F990F990F990F80E0089563
:101230000895CF93DF931F92CDB7DEB76983DC01AA
:10124000ED91FC910280F381E02D41E050E0BE0180
:101250006F5F7F4F09950F90DF91CF910895FC014B
:10126000818D928D0895FC019485FB0184859813EE
:1012700003C081E0943008F080E00895FF920F935E
:101280001F93CF93DF9300D0CDB7DEB7F82E22E0C7
:1012900030E0AE014F5F5F4F66E270E00E9458039E
:1012A00009811A8110270127102722E030E0AE01C2
:1012B0004F5F5F4F66E270E08F2D0E945803898177
:1012C0009A819827892798270817190711F08C0108
:1012D000ECCFC8010F900F90DF91CF911F910F912C
:1012E000FF9008950F931F93CF93DF9300D0CDB756
:1012F000DEB7FC0124852430E0F48C01CE01019698
:101300000E94501C89819A810E94720322E030E081
:10131000AE014F5F5F4F60E170E0F80184850E948D
:10132000580309811A811027012710270E94710391
:1013300002C000E010E0C8010F900F90DF91CF9144
:101340001F910F9108950F931F93CF93DF9300D0B8
:10135000CDB7DEB7FC0124852430E0F48C01CE014A
:1013600001960E94501C89819A810E94720322E09A
:1013700030E0AE014F5F5F4F64E070E0F8018485BC
:101380000E94580309811A811027012710270E9403
:10139000710302C000E010E0C8010F900F90DF91D0
:1013A000CF911F910F910895AF92BF92CF92DF928C
:1013B000EF92FF920F931F93CF93DF93CDB7DEB7DA
:1013C000AF970FB6F894DEBF0FBECDBF8C015B01A7
:1013D0006A01CE0101960E948F148BEFE82E81E006
:1013E000F82EFBA6EAA61CA61DA61EA61FA6809187
:1013F0008A0590918B05A0918C05B0918D058EA3E7
:101400009FA3A8A7B9A78B839C83AD83BE831886AF
:101410001F82AE01465D5F4FB501CE0101960E946D
:10142000321281309105B1F4D801ED91FC9104881C
:10143000F589E02DFDA2ECA28CA59DA5AEA5BFA5CA
:101440008EA39FA3A8A7B9A7A601BE016C5D7F4F7D
:10145000C8010995AF960FB6F894DEBF0FBECDBF99
:10146000DF91CF911F910F91FF90EF90DF90CF9080
:10147000BF90AF900895E0919704F0919804908107
:1014800080919604892B80830895E0919704F091D0
:101490009804908180919604809589238083089593
:1014A000CF93DF931F92CDB7DEB7898341E050E041
:1014B000BE016F5F7F4F80E090E00E943E1A0F9068
:1014C000DF91CF9108958EBD00000DB407FEFDCFD2
:1014D0008EB50895EF92FF921F93CF93DF9300D0C4
:1014E000CDB7DEB7182F22E030E0AE014F5F5F4F7F
:1014F00060E270E00E945803E980FA80FE24EF2445
:10150000FE2422E030E0AE014F5F5F4F60E270E00A
:10151000812F0E94580389819A81982789279827CB
:10152000E816F90611F07C01ECCF87E0189FF00176
:101530001124E25EF94FF582E482C7010F900F900B
:10154000DF91CF911F91FF90EF9008951F93CF935C
:10155000DF9300D0CDB7DEB7182FCE0101960E94E1
:10156000501C89819A810E947203812F0E940A096E
:1015700027E0129FF0011124E25EF94F22813381AE
:10158000377041E050E0BE016F5F7F4F820F931FC5
:101590000E94B1190E94710389810F900F90DF9111
:1015A000CF911F910895FC01808D843040F4218DEE
:1015B000328D232B21F00E94A60A90E008958FEF30
:1015C0009FEF0895EF92FF920F931F93CF93DF93B6
:1015D00000D0CDB7DEB7482F87E0489F9001112497
:1015E000F901E25EF94F7F01808191810097B9F4A2
:1015F000142FCE0101960E94501C89819A810E946D
:101600007203812F0E943E098C010E947103F70131
:1016100086819801281B3109C901318320830F90ED
:101620000F90DF91CF911F910F91FF90EF90089550
:101630001F93CF93DF9300D0CDB7DEB7182FCE0125
:1016400001960E94501C89819A810E94720368E071
:1016500070E0812F0E94A1190E9471030F900F90DA
:10166000DF91CF911F9108951F93CF93DF9300D007
:10167000CDB7DEB7182FCE0101960E94501C89818C
:101680009A810E94720360E170E0812F0E94A1198B
:101690000E9471030F900F90DF91CF911F910895D9
:1016A000CF92DF92EF92FF920F931F93CF93DF932E
:1016B00000D000D000D0CDB7DEB78C016B017A012D
:1016C000FC01808D843010F40E94340B8BEF91E08C
:1016D0009A838983F60182819381A481B5818B836A
:1016E0009C83AD83BE83B701CE0101960E94801C0E
:1016F000F801808F843030F4F586E486128E118EE6
:1017000081E001C080E026960FB6F894DEBF0FBEE0
:10171000CDBFDF91CF911F910F91FF90EF90DF90A0
:10172000CF900895CF93DF93FC01808D843028F40F
:10173000EF010E94340B84E0888FDF91CF910895F0
:10174000DA0190919904E92FF0E0FE2FEE27E60FE1
:10175000F71F90E0982F8827A901BD018E0F9F1FCA
:101760000C943E1A7F928F929F92AF92BF92CF922B
:10177000DF92EF92FF920F931F93CF93DF9300D0EE
:10178000CDB7DEB7782E8B014A01590122E030E057
:10179000AE014F5F5F4F64E270E00E945803E98042
:1017A000FA80FE24EF24FE24E00EF11E970137702C
:1017B00040914206072D10E0C801433311F408960A
:1017C00001C04096982F8827990F990F990F820F83
:1017D000931F473319F4A501B40120C0A9014A0D94
:1017E0005B1D41305840B8F360E078E06B01C21AED
:1017F000D30AA601B4010E943E1AA5014C195D0945
:10180000B4016C0D7D1D80914206833339F5085F6C
:101810001F4F902F990F990F990F80E00E943E1A49
:10182000EA0CFB1CF982EA8222E030E0AE014F5F55
:101830005F4F64E270E0872D0E94A00B0F900F9025
:10184000DF91CF911F910F91FF90EF90DF90CF909C
:10185000BF90AF909F908F907F900895005F1F4F33
:10186000D8CF7F928F929F92AF92BF92CF92DF920A
:10187000EF92FF920F931F93CF93DF9300D0CDB7DA
:10188000DEB77C014B01742EC52EFC01A688B788FB
:10189000D08CCE0101960E94501C89819A810E94B1
:1018A00072038D2D0E946A0A072D1C2D8017910747
:1018B00008F48C019801A401B5018D2D0E94B20B92
:1018C0000E947103F70186899789800F911F978B7A
:1018D000868BC8010F900F90DF91CF911F910F91D0
:1018E000FF90EF90DF90CF90BF90AF909F908F9040
:1018F0007F900895CF93DF9300D0CDB7DEB7798383
:101900006A8322E030E0AE014F5F5F4F60E170E03C
:101910000E94A00B0F900F90DF91CF910895CF936D
:10192000DF9300D0CDB7DEB779836A8322E030E061
:10193000AE014F5F5F4F64E070E00E94A00B0F901C
:101940000F90DF91CF910895DF92EF92FF920F9366
:101950001F93CF93DF9300D0CDB7DEB7FB01DC013F
:1019600057961C921E9256972281211109C02381FD
:10197000211106C02481211103C02581222309F1F0
:1019800041155105F1F07A018F01FC01D08CCE0197
:1019900001960E94501C89819A810E947203A801BD
:1019A0004E5F5F4F24E030E06CE070E08D2D0E94D0
:1019B000A00BB7018D2D0E947A0C0E94710381E06B
:1019C00001C080E090E00F900F90DF91CF911F91C8
:1019D0000F91FF90EF90DF900895CF93DF931F92C8
:1019E000CDB7DEB790919904292F30E0322F22270E
:1019F000260F371F90E0982F8827498341E050E059
:101A0000BE016F5F7F4F820F931F0E943E1A0F909F
:101A1000DF91CF910895CF93DF931F92CDB7DEB7BB
:101A200041E050E0BE016F5F7F4F0E94B119898194
:101A30000F90DF91CF91089580E090E00C940B0D12
:101A400090919904292F30E0322F2227260F371F3B
:101A500090E0982F8827820F931F0C940B0DAF9264
:101A6000BF92CF92DF92EF92FF920F931F93CF938B
:101A7000DF9300D000D000D0CDB7DEB7082F6B01C8
:101A8000CE0101960E94501C89819A810E947203A6
:101A90009E012F5F3F4F7901590110E063E070E034
:101AA000812F0E94200DF50181935F018823D1F0E1
:101AB0001F5F143099F710E0F70181917F018D319C
:101AC00061F0883151F08A51823038F01F5F143054
:101AD00099F70E94710384E05CC060E170E0812F9F
:101AE0000E94A119E12EF12C83EE93E00197F1F70A
:101AF000402F60E070E0812F0E94ED0C4FEF62E01C
:101B000070E0812F0E94ED0CC114D10411F0B601D8
:101B100013C0809106019091070101968115F0ECA8
:101B20009F0710F480E090EC9093070180930601EA
:101B30006091060170910701812F0E948F0C61E076
:101B400070E0812F0E94A11927E02E9DC0012F9DDA
:101B5000900D11249C01225E394F7901F901118207
:101B6000108222E030E0AE014B5F5F4F68E270E030
:101B7000812F0E9458038D819E819827892798275D
:101B8000F701938382831682158214820E94710367
:101B9000812F26960FB6F894DEBF0FBECDBFDF9122
:101BA000CF911F910F91FF90EF90DF90CF90BF905A
:101BB000AF9008950F931F93CF93DF93EC018B01A8
:101BC000888D843010F40E94340B80914206882363
:101BD00029F0B80182E00E942F0D01C084E0888FB7
:101BE000843030F41D870C871A8E198E81E001C075
:101BF00080E0DF91CF911F910F910895FF920F9395
:101C00001F93CF93DF9300D0CDB7DEB7F82ECE0170
:101C100001960E94501C89819A810E9472038F2D27
:101C20000E946A0A8C0163E070E08F2D0E94200DF3
:101C3000F82E0E94710387E1F81631F08CE1F81656
:101C400019F080E090E001C0C8010F900F90DF9183
:101C5000CF911F910F91FF9008954F925F927F92C5
:101C60008F929F92AF92BF92CF92DF92EF92FF92AC
:101C70000F931F93CF93DF9300D0CDB7DEB7782EAD
:101C80006B014A01A82EB12C27E0829FC0011124CC
:101C9000AC01425E594F7A01FA0100811181CE01F7
:101CA00001960E94501C89819A810E947203081536
:101CB000190554F4872D0E943E09F70126818C01F5
:101CC000021B11091183008301151105A9F463E0BA
:101CD00070E0872D0E94200D843109F480C0882394
:101CE00009F47DC001E010E08C3111F400E010E057
:101CF00011950195110973C0801691060CF48401A9
:101D000087E08A9DF0018B9DF00D1124E25EF94F72
:101D1000E280F380C114D10459F12701F7E05F227A
:101D2000872D0E940A09840D951D209142062733B4
:101D300019F4A801B6011AC09801240D351D2130EF
:101D40003840B8F320E038E0490184189508A40130
:101D5000B6010E94B1192601480C591C6801C81827
:101D6000D908872D0E940A09A601B2010E94B11963
:101D7000E00EF11E87E08A9DF0018B9DF00D11248D
:101D8000E25EF94FF382E28280819181801B910BA8
:101D9000918380832681A801420F511D4A3F51053E
:101DA00010F4892BD9F487E08A9DF0018B9DF00D0A
:101DB0001124E25EF94F1682F982EA8222E030E0D5
:101DC000AE014F5F5F4F68E270E0872D0E94A00B6D
:101DD00060E470E0872D0E94A11901C046830E9433
:101DE0007103C8010F900F90DF91CF911F910F9158
:101DF000FF90EF90DF90CF90BF90AF909F908F902B
:101E00007F905F904F900895CF93DF93FC01218DD9
:101E1000328D2115310519F48FEF9FEF11C0EC01C0
:101E20004217530708F0A901888D0E942D0E18163D
:101E3000190694F7298D3A8D281B390B3A8F298F73
:101E4000DF91CF9108950F931F93CF93DF931F924C
:101E5000CDB7DEB7FC01218D328D232B61F08C01D3
:101E600041E050E0BE016F5F7F4F808D0E942D0EDC
:101E7000181619061CF08FEF9FEF08C0F801818D2E
:101E8000928D0197928F818F898190E00F90DF91E1
:101E9000CF911F910F9108950F931F93CF93DF93CD
:101EA000CDB7DEB728970FB6F894DEBF0FBECDBF13
:101EB0008C01D80159964D915C915A974115510565
:101EC00051F0ED91FC91048CF58DE02D60E070E017
:101ED000C8010995EECFF801808D0E94E20A892B96
:101EE00051F148E050E0BE016F5F7F4FD801589636
:101EF0008C910E942D0E18161906FCF4D8015096EC
:101F000084E0FE01319601900D928A95E1F78D8172
:101F100090E0982F88272E81820F911DF801958BD4
:101F2000848B8F8190E0982F88272885820F911DC0
:101F3000928F818F02C080E090E028960FB6F894CF
:101F4000DEBF0FBECDBFDF91CF911F910F910895DE
:101F50001F93CF93DF9300D0CDB7DEB7182FCE01FC
:101F600001960E94501C89819A810E94720363E04D
:101F700070E0812F0E94200D182F0E947103812F85
:101F80000F900F90DF91CF911F910895CF93DF9322
:101F9000EC018C858430C8F40E94A80F843181F054
:101FA000882371F0883161F08C3161F4E881F98126
:101FB0000084F185E02DCE01099521E0892B19F4EB
:101FC00020E001C021E0822F01C080E0DF91CF91AD
:101FD00008951F93CF93DF9300D0CDB7DEB7FC01F8
:101FE000108DCE0101960E94501C89819A810E9419
:101FF000720360E270E0812F0E94A11962E070E03C
:10200000812F0E94200D84FD1CC062E070E0812FB2
:102010000E94200D83FF0AC048E162E070E0812F3A
:102020000E94ED0C0E94710380E014C00E947103B5
:10203000CE0101960E94501C89819A810E947203F0
:10204000DDCF40E162E070E0812F0E94ED0C0E9444
:10205000710381E090E00F900F90DF91CF911F917D
:102060000895EF92FF920F931F93CF93DF9300D0C9
:1020700000D0CDB7DEB78C017B01FB0184858430B5
:1020800050F08BEF91E0F8019183808312821382EC
:10209000148215821BC0CE0101960E94501C8981BA
:1020A0009A810E94720324E030E0AE014F5F5F4FDF
:1020B0006CE070E0F70184850E9458030E94710370
:1020C000BE016F5F7F4FC8010E94E617C8010F90E5
:1020D0000F900F900F90DF91CF911F910F91FF9074
:1020E000EF90089520E3FC0120833296862F82959D
:1020F0008F7090E1899F601911246A3014F4605D3B
:1021000001C0695C6293682F8111F0CF0895CF926E
:10211000DF92EF92FF920F931F93CF93DF93CDB790
:10212000DEB7E2970FB6F894DEBF0FBECDBFFB015E
:10213000DC0112964D915D916D917C9115974DA7A3
:102140005EA76FA778AB31E038AB8DA59EA5AFA594
:10215000B8A98B8F9C8FAD8FBE8FC280D380E48057
:10216000F5808BEF91E09C8B8B8B2FEF2D8B2E8B43
:102170002F8B188E9E878D873E8F0B8D1C8D2D8DFE
:102180003E8D0F87188B298B3A8BC986DA86EB86B2
:10219000FC869A8389834B835C836D837E830E9454
:1021A000FB1A8823A1F1CE01C1960E94501C89A977
:1021B0009AA90E94720346E050E060E071E089E075
:1021C00090E00E943E1ACE0103960E946A0344E00A
:1021D00050E0BE01615F7F4F81E090E00E943E1AB7
:1021E00044E050E0BE016B5E7F4F85E090E00E94CE
:1021F0003E1A0E94710389859A85AB85BC858093C0
:102200008A0590938B05A0938C05B0938D05E2967B
:102210000FB6F894DEBF0FBECDBFDF91CF911F91F7
:102220000F91FF90EF90DF90CF9008950F931F9341
:10223000CF93DF93EC010E94861D8C016AE273E06C
:10224000CE010E94861D800F911FDF91CF911F91BB
:102250000F9108957F928F929F92AF92BF92CF92EB
:10226000DF92EF92FF920F931F93CF93DF93CDB73F
:10227000DEB7A6970FB6F894DEBF0FBECDBF8C01B8
:10228000762E942E852E20E2B22ECE0101967C0170
:10229000FC012B2D11922A95E9F78BEF91E09AA37F
:1022A00089A38FEF8BA38CA38DA38EA3680183E4F6
:1022B000C80ED11C43E450E0BE016F5D7F4FC601E4
:1022C0000E94A40C019609F4B9C081E089838A8335
:1022D00086E0A82EAB821C82F8016481758186811C
:1022E00097810E94762A6D837E838F839887898663
:1022F0009A8680E890E09C878B874CE150E0B7019C
:10230000C6010E94310CF7012B2D11922A95E9F795
:10231000480188E0880E911CF401D70101900D92CC
:10232000AA94E1F740E150E0B701C6010E94310CE8
:10233000F7011192BA94E9F796E0A92EB12C40E288
:1023400050E0B701C6010E94310CF1E0AF1AB108AC
:10235000B1F783E6898392E89A8393E59B838C8324
:1023600085E38D8381E08E837F829DE3988797E06C
:1023700099878A8786E0F401DE011B9601900D9211
:102380008A95E1F78CE0898B8A8B68EB73E0CE014C
:1023900043960E94952CF8016385CE0149960E94D0
:1023A0007210F8016485CE014B960E947210F801FC
:1023B0006585CE014D960E9472104EE150E0B70146
:1023C000C6010E94310CF3E07F121EC082E38983B4
:1023D00084E08A83F80196859B8397859C83908906
:1023E0009D8391899E8396E39F838887828D8987C9
:1023F000838D8A87848D8B87858D8C874CE050E018
:10240000B701C6010E94310C87E3898386E08A8385
:1024100091E09B8393E09C838D838FE08E838AE39E
:102420008F838BE388878FEF898749E050E0B7017E
:10243000C6010E94310CC6010E94E90FA6960FB694
:10244000F894DEBF0FBECDBFDF91CF911F910F91EA
:10245000FF90EF90DF90CF90BF90AF909F908F90C4
:102460007F9008954F925F926F927F928F929F928A
:10247000AF92BF92CF92DF92EF92FF920F931F9392
:10248000CF93DF93CDB7DEB763970FB6F894DEBF77
:102490000FBECDBF7C015B013A01FB0120E080E073
:1024A00090E06AE03191332309F140ED430F4A3067
:1024B00080F4689FA001699F500D1124CA01C09744
:1024C000830F911D37FD9A958F3F910559F350F376
:1024D00013C03E3289F4233079F0D301A20FB11D2D
:1024E00012968C932F5F80E090E0DCCF233021F4B4
:1024F000F301858381E021C0F7014281538164812A
:1025000075818091900590919105A0919205B0916F
:102510009305481759076A077B0709F491C10E9480
:102520004B198701085F1F4F6F7077277C5FC801C9
:102530000E94DA0D813019F080E090E0D9C18BEF74
:1025400091E09A838983F70182819381A481B58187
:102550008B839C83AD83BE8345E350E0BE016F5FF8
:102560007F4FC8010E94A40C892B19F4C12CD12CD7
:1025700062C10E944B19F7017783668342E050E005
:10258000B7016A5F7F4FC8010E94310C81E090E083
:102590009A83898342E050E0BE016F5F7F4FC8019C
:1025A0000E94310C80E091E09A83898342E050E000
:1025B000BE016F5F7F4FC8010E94310C1A821982E1
:1025C00042E050E0BE016F5F7F4FC8010E94310CB6
:1025D00042E050E0BE016F5F7F4FC8010E94310CA6
:1025E00042E050E0BE016F5F7F4FC8010E94310C96
:1025F0004501F5018081882301F164015601F6014E
:1026000081912F01882321F08E3211F06201F6CFE3
:10261000C818D9081C141D0474F4CD8641E050E09C
:10262000BE01635F7F4FC8010E94310CA601B40157
:10263000C8010E94310C4201DCCF1D8641E050E010
:10264000BE01635F7F4FC8010E94310CC12CDD24A5
:10265000D394DA82C98242E050E0BE016F5F7F4FBF
:10266000C8010E94310CDA82C98242E050E0BE010A
:102670006F5F7F4FC8010E94310CC8010E94E90FB3
:10268000892B09F473CFE3E0AE2EB12C230122E0B5
:10269000420E511C0E944B193B014C01C8010E9483
:1026A0004C0F18161906A4F00E944B19DC01CB013F
:1026B00086199709A809B90989389341A105B10577
:1026C000D0F462E370E080E090E00E94F818E6CF7A
:1026D000F7014281538164817581808D918DA28D36
:1026E000B38D481759076A077B0749F4848D958D88
:1026F000C59729F409C0CC24CA94DC2C93C05EEFA2
:10270000C52EDD24DA948EC0F70181A192A10C9729
:102710000CF4E9C04CE050E0BE016F5F7F4FC80190
:102720000E94040F8B819C819827892798279A8B78
:10273000898BF7014681578129813A8142175307D6
:1027400009F0C2C097FFC0C08F709270892B09F04A
:10275000C0C06F8078847624672476246114710465
:1027600009F4BCC0C12CD12C8D819E81982789276A
:102770009827C816D90608F466C0812C912C41E030
:1027800050E0BE016D5E7F4FC8010E94040F4B896F
:10279000842F807C09F076C0442331F050E060E063
:1027A00070E0C8010E94040F8B898111E8CF42E0DC
:1027B00050E0BE01615F7F4FC8010E94040F42E0FC
:1027C00050E0BE01635F7F4FC8010E94040F44E0E8
:1027D00050E060E070E0C8010E94040F42E050E069
:1027E000BE016F5E7F4FC8010E94040F8F859889DC
:1027F00049895A898115914009F04DC0CD84DE8404
:10280000DC24CD24DC2481E0C816D10409F043C0C7
:102810004115544009F053C044E050E0B201C801F2
:102820000E94040F21E0A21AB10829F0FFEFCF1691
:10283000DF0609F42FCFC8010E94920BC60158C0D1
:102840008EEF9FEF55C041E050E0BE01635F7F4FC8
:10285000C8010E94040F4D85442331F050E060E030
:1028600070E0C8010E94040F8D858111ECCF44E017
:1028700050E060E070E0C8010E94040FFFEFCF1A43
:10288000DF0A72CF41E050E060E070E0C8010E94D2
:10289000040F1B8A89CF54274527542760E070E036
:1028A000C8010E94040FFFEF8F1A9F0A6814790471
:1028B00009F065CF96EFC92EDD24DA94B3CF77EF18
:1028C000C72EDD24DA94AECF4CEFC42EDD24DA948B
:1028D000A9CF3BEFC32EDD24DA94A4CF2AEFC22E7A
:1028E000DD24DA949FCF8DEFC82EDD24DA949ACFC1
:1028F00063960FB6F894DEBF0FBECDBFDF91CF91C8
:102900001F910F91FF90EF90DF90CF90BF90AF900D
:102910009F908F907F906F905F904F900895FC01F3
:102920008BEF91E09183808312821382148215824F
:102930001386128648EE53E060E070E044875587C6
:102940006687778723E731E031872087978B868BEF
:10295000108E118E128E138E84E080A308959091B4
:10296000DA05E091DB05F091DC05292F209580FF49
:1029700012C0F8948281822382838181892B818392
:10298000A3E2B0E01197F1F78281982B92837894BB
:1029900087ED90E011C0F894828182238283818147
:1029A000892B8183AFEFB0E01197F1F78281982BEB
:1029B000928378948FE090E00197F1F708959091D9
:1029C000DA05E091DB05F091DC05F8948181892B33
:1029D00081832281892F809528232283A7E0B0E07C
:1029E0001197F1F7218182238183A3E2B0E011974F
:1029F000F1F780817894EFECF0E03197F1F79823CC
:102A000081E009F480E008952F923F924F925F9207
:102A10006F927F928F929F92AF92BF92CF92DF92EE
:102A2000EF92FF920F931F93CF93DF93CDB7DEB753
:102A3000E9970FB6F894DEBF0FBECDBF7C014A0107
:102A40005B0119010E944B192B013C0187010D5BB1
:102A50001F4FC8010E944C0F18161906A4F00E94BF
:102A60004B19DC01CB0184199509A609B709881611
:102A70009906AA06BB06D8F062E370E080E090E019
:102A80000E94F818E6CF42E250E0BE016F5F7F4F30
:102A9000C8010E94040F8981823011F080E035C1A5
:102AA000F8018489958983349105C1F702C08FEFBD
:102AB0002CC16D817E818F8198850E94762A2B01A1
:102AC0003C01F101608371838283938346E050E08F
:102AD000B701685F7F4FCE014D960E946F2C892B06
:102AE000E9F6F70180819181A281B38148165906E8
:102AF0006A067B0698F284819581A681B781841548
:102B00009505A605B70550F289899A89AB89BC89D4
:102B100086879787A08BB18B4EEC50E060E070E029
:102B2000C8010E94040F1FA66701F2E2CF0ED11C5C
:102B3000C701869699AB88ABF701BA96FBABEAABB7
:102B40004701FAE18F0E911C8D969DAB8CABF7017E
:102B50007296FFABEEABCD9799AF88AF17019EE1B0
:102B6000290E311CF801818D928D181619060CF072
:102B7000CBC0C8010E94230F8333910509F4A5C07F
:102B8000ACF48130910569F11CF4892B59F3B6C07E
:102B90008330910571F1069709F0B0C0C8010E9419
:102BA000230F5C0144E050E0B1012BC08A33910552
:102BB00009F45FC034F48533910559F0C69771F17B
:102BC0009DC08B33910509F46AC08F3F910551F286
:102BD00095C0C8010E94230FC8010E94230F8FA730
:102BE000C1CFC8010E94230F44E050E06EA97FA925
:102BF00011C0C8010E94230F5C0144E050E068ADA1
:102C000079ADC8010E94040FA50155274450510910
:102C100060E070E0C8010E94040FA4CFC8010E94C8
:102C2000230F5C01B401CE0183960E94E6178DA1AB
:102C30009EA1AFA1B8A5892B8A2B8B2BA1F0ECA963
:102C4000FDA94080518062807380B401CE018996D5
:102C50000E94E6178BA59CA5ADA5BEA5841595057C
:102C6000A605B70521F444E050E0B401D3CFA50197
:102C700049C0C8010E94230F44E050E068A979A927
:102C8000C8010E94040FF70166A177A180A591A554
:102C90000E94762A66A377A380A791A763CFC80175
:102CA0000E94230F44E050E06AA97BA9C8010E945A
:102CB000040FF70162A573A584A595A50E94762A45
:102CC00062A773A784A795A74DCFC8010E94230FC1
:102CD00044E050E0B601C8010E94040FF70162A170
:102CE00073A184A195A10E94762A62A373A384A3F1
:102CF00095A366A777A780AB91AB34CFC8010E949C
:102D0000230FAC01552784CF8FA5E9960FB6F89411
:102D1000DEBF0FBECDBFDF91CF911F910F91FF900E
:102D2000EF90DF90CF90BF90AF909F908F907F906B
:102D30006F905F904F903F902F900895FC01538DBE
:102D4000448D252F30E0842F90E0821B930B541785
:102D500010F0CF96089501970895FC01918D828D12
:102D6000981761F0828DDF01A80FB11D5D968C91DF
:102D7000928D9F5F9F73928F90E008958FEF9FEFEA
:102D80000895FC01918D828D981731F0828DE80FA6
:102D9000F11D858D90E008958FEF9FEF0895FC0160
:102DA000918D228D892F90E0805C9F4F821B91092D
:102DB0008F739927089585EA94E00E94CF1621E049
:102DC000892B09F420E0822F0895FC01848DDF0116
:102DD000A80FB11DA35ABF4F2C91848D90E001968E
:102DE0008F739927848FA689B7892C93A089B1897D
:102DF0008C91837080648C93938D848D981306C01E
:102E00000288F389E02D80818F7D80830895EF9281
:102E1000FF920F931F93CF93DF93EC0181E0888F94
:102E20009B8D8C8D981305C0E889F989808185FD7B
:102E300026C0F62E0B8D10E00F5F1F4F0F7311276A
:102E4000E02E8C8DE8120CC00FB607FCFACFE88993
:102E5000F989808185FFF5CFCE010E94E516F1CF7B
:102E60008B8DFE01E80FF11DE35AFF4FF0829FB7F3
:102E7000F8940B8FEA89FB89808180620AC09FB732
:102E8000F894EE89FF896083E889F98980818370ED
:102E9000806480839FBF81E090E0DF91CF911F919C
:102EA0000F91FF90EF900895CF93DF93EC01888D01
:102EB0008823C9F0EA89FB89808185FD05C0A8893E
:102EC000B9898C9186FD0FC00FB607FCF5CF8081C4
:102ED00085FFF2CFA889B9898C9185FFEDCFCE010E
:102EE0000E94E516E7CFDF91CF91089580E090E052
:102EF000892B29F00E94DB1681110C9400000895A3
:102F0000FC0120812EBD9B012150310941F05181EE
:102F10000DB407FEFDCF4EB55EBD4193F5CF6150B8
:102F20007109FC01E60FF71F0DB407FEFDCF8EB54A
:102F3000808308958F929F92AF92BF92CF92DF923B
:102F4000EF92FF920F931F93CF93DF937C01EB01DE
:102F50006C0182E0C80ED11C4701E5E08E0E911C89
:102F600000E010E0F60141916F0150E060E070E098
:102F70002AE0CE010E949B1D5C01E881F98101904D
:102F8000F081E02D6EE2CE0109958A0D9B1D080FA0
:102F9000191F8C149D0431F7F701458150E060E062
:102FA00070E02AE0CE010E949B1D800F911FDF91EF
:102FB000CF911F910F91FF90EF90DF90CF90BF9036
:102FC000AF909F908F9008950E946A2CDC018BEF48
:102FD00091E08D939D9384E0FB0101900D928A9581
:102FE000E1F708951F920F920FB60F9211242F93BD
:102FF0003F934F935F936F937F938F939F93AF9381
:10300000BF93EF93FF9385EA94E00E94E516FF914A
:10301000EF91BF91AF919F918F917F916F915F9150
:103020004F913F912F910F900FBE0F901F901895C9
:103030001F920F920FB60F9211242F938F939F938D
:10304000EF93FF93E091B504F091B6048081E09195
:10305000BB04F091BC0482FD12C090818091BE043B
:103060008F5F8F732091BF04821751F0E091BE04EF
:10307000F0E0EB55FB4F958F8093BE0401C080813B
:10308000FF91EF919F918F912F910F900FBE0F9015
:103090001F90189590E0FC01E456FF4F2491FC012D
:1030A000E253FF4F3491FC01E654FF4FE491EE23CD
:1030B00009F43CC0222339F1233091F038F4213057
:1030C000A9F0223001F584B58F7D12C0273091F030
:1030D0002830A1F02430B9F4809180008F7D03C0A6
:1030E000809180008F77809380000DC084B58F77AA
:1030F00084BD09C08091B0008F7703C08091B0007B
:103100008F7D8093B000F0E0EE0FFF1FEE56FF4F73
:10311000A591B4919FB7F894611104C08C9130953A
:10312000382302C0EC913E2B3C939FBF0895CF9370
:10313000DF9390E0FC01E253FF4F2491FC01E65441
:10314000FF4F8491882361F190E0880F991FFC0163
:10315000E857FF4FC591D491FC01EE56FF4FA59162
:10316000B491611109C09FB7F8948881209582239A
:103170008883EC912E230BC0623061F49FB7F894E2
:103180008881322F309583238883EC912E2B2C93CA
:103190009FBF06C08FB7F894E8812E2B28838FBF7E
:1031A000DF91CF9108953FB7F8948091A104909159
:1031B000A204A091A304B091A40426B5A89B05C0C5
:1031C0002F3F19F00196A11DB11D3FBFBA2FA92FA6
:1031D000982F8827820F911DA11DB11DBC01CD0123
:1031E00042E0660F771F881F991F4A95D1F708950F
:1031F0008F929F92AF92BF92CF92DF92EF92FF9207
:103200006B017C010E94D3184B015C01C114D104F5
:10321000E104F104F1F00E94D318DC01CB0188191C
:103220009909AA09BB09883E9340A105B10570F32D
:1032300021E0C21AD108E108F10888EE880E83E087
:10324000981EA11CB11CC114D104E104F10419F7AA
:10325000DDCFFF90EF90DF90CF90BF90AF909F9029
:103260008F900895CF93DF9380E80E94500AC4E1C5
:10327000D0E00E941C0D882351F061E070E080E0F6
:1032800090E00E94F8182197A1F780E001C081E04A
:10329000DF91CF9108952FB7F89460919D047091BC
:1032A0009E0480919F049091A0042FBF08951F92C7
:1032B0000F920FB60F9211242F933F938F939F93EA
:1032C000AF93BF9380919D0490919E04A0919F0421
:1032D000B091A00430919C0423E0230F2D3720F4FB
:1032E0000196A11DB11D05C026E8230F0296A11D60
:1032F000B11D20939C0480939D0490939E04A09301
:103300009F04B093A0048091A1049091A204A09185
:10331000A304B091A4040196A11DB11D8093A10442
:103320009093A204A093A304B093A404BF91AF917F
:103330009F918F913F912F910F900FBE0F901F90F3
:103340001895CF93C82F462F61E070E00E94ED0CD6
:1033500061E070E08C2F0E94200D8111F9CFCF9198
:103360000895AF92BF92CF92DF92EF92FF920F93A8
:103370001F93CF93DF9300D000D0CDB7DEB78C0181
:103380006B017A01809142068333F1F45B0168019D
:10339000C40ED51E0C151D0509F460C00E94450A17
:1033A0008FE00E94630A812F0E94630A802F0E948F
:1033B000630A0F5F1F4F80E00E94630AF50181934B
:1033C0005F010E943B0AE6CF8433F1F40E94450A74
:1033D00019830A838F2D8F778B83EC8264E070E0F2
:1033E000CE0101960E948017A70160E070E0C6013F
:1033F0000E94852CE114F10421F0B701C6010E945E
:1034000080170E943B0A2AC00E94450A0F3F1105FF
:1034100009F020F419820A831B821DC017FD0BC01E
:1034200019820A8333E0169507953A95E1F7007EF5
:1034300008600B8310C0C80126E0969587952A95F1
:10344000E1F719830A83807E0115104C10F4806126
:1034500001C088618B8363E070E0C2CFC7010F9029
:103460000F900F900F90DF91CF911F910F91FF90D0
:10347000EF90DF90CF90BF90AF900895AF92BF9242
:10348000CF92DF92EF92FF920F931F93CF93DF9330
:10349000CDB7DEB728970FB6F894DEBF0FBECDBF0D
:1034A0008C017B016A01809142068333E1F458016B
:1034B000A40EB51E0A151B0509F48BC00E94450A0F
:1034C00080EF0E94630A812F0E94630A802F0E946E
:1034D000630A0F5F1F4FF70181917F010E94630A0A
:1034E0000E943B0AE7CF843321F50E94450A1983E5
:1034F0000A838D2D80688B83CC8264E070E0CE01DE
:1035000001960E94801787010C0D1D1DE016F10623
:1035100069F0F70181917F010E94630AF7CFB6013C
:103520006D5F7F4FCE0101960E9480170E943B0A7B
:1035300050C00E94450A0F3F110509F020F419827E
:103540000A8384E01CC017FD0BC019820A8333E094
:10355000169507953A95E1F7007E0C600B8310C035
:10356000C80126E0969587952A95E1F719830A8385
:10357000807E0115104C10F4846101C08C618B8336
:1035800026E0C216D10498F420E0822F90E08C153A
:103590009D0528F6E4E0F0E0EC0FFD1FE80FF91FB1
:1035A000D701A80FB91F8C9180832F5FEECF63E006
:1035B00070E0CE0101960E94801787010C0D1D1D41
:1035C000F70181917F010E94630AE016F106C1F7BD
:1035D000ADCFC60128960FB6F894DEBF0FBECDBFA3
:1035E000DF91CF911F910F91FF90EF90DF90CF90DF
:1035F000BF90AF9008951F93CF93DF9300D01F9299
:10360000CDB7DEB780919B0481117DC060E372E08D
:1036100080E090E00E94F8181FB7F89480919A0417
:10362000811127C0E4ECF0E08491E8EDF0E09491A2
:10363000E82FF0E0EE0FFF1FE857FF4FA591B49180
:10364000EC91E92321F461E08AE00E944A1861E0EC
:103650008AE00E9497188CB580618CBD8CB580641F
:103660008CBD61E08DE00E94971861E08BE00E94C4
:10367000971880919A048F5F80939A041FBFE4EC9F
:10368000F0E0E491F0E0EE0FFF1FEE56FF4F859162
:1036900094919093980480939704E8EDF0E0E4917E
:1036A000E093960461E08AE00E9497180E943B0A2A
:1036B000CE0101960E94501C89819A810E9472035A
:1036C00084E3809342060E9432198823F1F088E057
:1036D0000E94500A0E941C0D8830B9F480E10E94BB
:1036E000500A0E941C0D803181F480E00E94500A33
:1036F0000E941C0D811109C08FE190E00E940B0D0A
:10370000833019F42FC081E08AC087E3809342069A
:103710000E943219882309F448C088E00E94500AA8
:103720000E941C0D883009F040C080E10E94500AC0
:103730000E941C0D182F8031C1F580E00E94500AB4
:103740000E941C0D811131C089E390E00E940B0D95
:10375000843059F5109399040E94710381E080939D
:103760009B045DC080E48093990410E042E06EE128
:1037700070E0812F0E94ED0C42E06FE170E0812F3C
:103780000E94ED0C1F5F143089F740E06EE170E09D
:10379000812F0E94ED0C40E06FE170E0812F0E94CC
:1037A000ED0C1F5F183089F7D7CF83E38093420673
:1037B0000E943219882371F180E10E94500A0E9410
:1037C0001C0D803139F582E10E94500A0E941C0DC7
:1037D000823101F580E00E94500A0E941C0D811187
:1037E00019C084E08093990415E51B8341E050E003
:1037F000BE016D5F7F4F8BE190E00E943E1A1983FE
:1038000041E050E0BE016F5F7F4F8AE190E00E948F
:103810003E1AA2CF109242060E94710380E00F90E0
:103820000F900F90DF91CF911F910895E5EAF4E09A
:10383000A089B18982E08C93A485B5851C92A68568
:10384000B7858FEC8C93108EA489B58986E08C9314
:10385000A289B3898C9180618C93A289B3898C9160
:1038600088608C93A289B3898C9180688C9302883C
:10387000F389E02D80818F7D80830895CF93DF933E
:1038800065EA74E00E949A17EC016AE273E085EA47
:1038900094E00E94861D8C0F9D1FDF91CF910895AB
:1038A00020E5FC01208321E021830895CF92DF925F
:1038B000EF92FF920F931F93CF93DF936C017A01E6
:1038C0008B01C0E0D0E0CE15DF0581F0D8016D910D
:1038D0008D01D601ED91FC910190F081E02DC601A2
:1038E0000995892B11F02196EECF7E01C701DF915A
:1038F000CF911F910F91FF90EF90DF90CF9008959F
:103900008F929F92AF92BF92CF92DF92EF92FF92EF
:103910001F93CF93DF93CDB7DEB72C970FB6F894F4
:10392000DEBF0FBECDBF20914206222309F4B4C0F2
:103930006B017C01CE0101960E94501C89819A8105
:103940000E9472035E0127E0A20EB11C450110E047
:1039500063E070E0812F0E94200DF40181934F01FC
:103960008823C9F01F5F143099F710E0F5018191A9
:103970005F018D3159F0883149F08A51823030F041
:103980001F5F143099F70E94710386C060E170E0F8
:10399000812F0E94A119A12EB12C83EE93E00197F3
:1039A000F1F742E860E070E0812F0E94ED0C4FEFEC
:1039B00062E070E0812F0E94ED0CC114D10411F07F
:1039C000B60113C0809106019091070101968115FF
:1039D000F0EC9F0710F480E090EC90930701809347
:1039E00006016091060170910701812F0E948F0CE2
:1039F00086E0E3E0F2E0DE01119601900D928A95F7
:103A0000E1F7F70183818F778C8384818D838581B2
:103A10008E83A7014E5F5F4F24E030E06CE070E0E2
:103A2000812F0E94A00BB601812F0E947A0C26E004
:103A300030E0AE014F5F5F4F66E070E0812F0E9483
:103A4000A00B61E070E0812F0E94A11927E02A9D60
:103A5000C0012B9D900D11249C01225E394F7901EC
:103A6000F9011182108222E030E0AE01455F5F4F24
:103A700068E270E0812F0E9458038B859C8598270F
:103A800089279827F70193838283168215821482EF
:103A90000E947103812F01C084E02C960FB6F89428
:103AA000DEBF0FBECDBFDF91CF911F91FF90EF9092
:103AB000DF90CF90BF90AF909F908F9008950F931D
:103AC0001F93CF93DF93EC0188819981009729F0B0
:103AD0002A813B812617370788F48B016F5F7F4F60
:103AE0000E94A42B009761F0998388831B830A832B
:103AF0002C813D81232B11F4FC01108281E001C057
:103B000080E0DF91CF911F910F91089561157105AC
:103B100079F0FB0101900020E9F73197AF01461BD6
:103B2000570BDC01ED91FC910280F381E02D0994AB
:103B300080E090E008958F929F92AF92BF92EF92B3
:103B4000FF920F931F93CF93DF93CDB7DEB7A1976B
:103B50000FB6F894DEBF0FBECDBF7C01FA01CB01DA
:103B600019A2223008F42AE08E010F5D1F4F822E29
:103B7000912CA12CB12CBF01A50194010E94A12977
:103B8000F901CA01015011096A3014F4605D01C0E5
:103B9000695CD8016C93232B242B252B61F7B8018A
:103BA000C7010E94861DA1960FB6F894DEBF0FBE16
:103BB000CDBFDF91CF911F910F91FF90EF90BF90FC
:103BC000AF909F908F9008950C94861DCF93DF93B4
:103BD000CDB7DEB7A1970FB6F894DEBF0FBECDBF4D
:103BE000789484B5826084BD84B5816084BD85B5D8
:103BF000826085BD85B5816085BD80916E008160E4
:103C000080936E0010928100809181008260809389
:103C1000810080918100816080938100809180008B
:103C20008160809380008091B10084608093B100B6
:103C30008091B00081608093B00080917A008460B0
:103C400080937A0080917A00826080937A008091DC
:103C50007A00816080937A0080917A0080688093F6
:103C60007A001092C100109284051092850510927E
:103C70008605109287051092440510924505109212
:103C80004605109247050E944B196B017C014B01C0
:103C90005C0128EB820E2BE0921EA11CB11C0E943D
:103CA0004B196C157D058E059F0528F08616970625
:103CB000A806B906A0F768EE73E080E090E00E94E5
:103CC000F8180E94161C0E944B19609344057093CB
:103CD0004505809346059093470569E072E085EAC3
:103CE00094E00E94E41D0E944B196B017C014B0182
:103CF0005C013AE0830E911CA11CB11C0E944B197F
:103D00006C157D058E059F0528F086169706A8067A
:103D1000B906A0F711E0109358050E94161C61E047
:103D20008BE00E9497186BE172E085EA94E00E94B4
:103D3000161180915004811129C0109238041092FC
:103D4000370488EE93E0A0E0B0E0809339049093CC
:103D50003A04A0933B04B0933C0483E791E0909332
:103D60003604809335048BEF91E090934404809364
:103D70004304109245041092460410924704109296
:103D8000480484E080934D041093500482EF93E044
:103D90009093F1038093F0030E94FB1A81110DC0F0
:103DA0006AE372E085EA94E00E941611E09142060F
:103DB000E353E53008F46EC273C2CE0101960E944F
:103DC000501C89819A810E94720346E050E060E0B5
:103DD00071E089E090E00E943E1A8BEF91E09A83B7
:103DE00089831B821C821D821E82CE0103960E9443
:103DF0006A030E9471031092140410921504109229
:103E000016041092170410921804109219041092BC
:103E10001A0410921B0410921C0410921D0410929C
:103E20001E0410921F0480E69AEEA0E0B0E080939A
:103E3000280490932904A0932A04B0932B0480EAC9
:103E40009FE0A0E0B0E080932C0490932D04A09319
:103E50002E04B0932F0484E1E0E0F4E0DF011D9232
:103E60008A95E9F786E0E0E0F1E0AAEFB3E001909F
:103E70000D928A95E1F7109234040E9426282FECC7
:103E800037E040E050E00E94C329DC01CB010196FD
:103E9000A11DB11D8093F6039093F703A093F8033F
:103EA000B093F9038093F2039093F303A093F40388
:103EB000B093F50385E394E00E94920B64E470E014
:103EC00085E394E00E94DA0D882309F469CF0E940B
:103ED0004B194B015C01E12CF12C53E0D52E68EE1F
:103EE000462E63E0562E612C712C02E08091340442
:103EF000833009F443C1811127C08091F60390916A
:103F0000F703A091F803B091F9030196A11DB11D2B
:103F10008093F6039093F703A093F803B093F9030B
:103F20000E944B19681979098A099B09A30192011A
:103F30000E94A129A90161E082EF93E00E942A1169
:103F400081E080933404FFC0843031F58091F60322
:103F50009091F703A091F803B091F9030196A11D88
:103F6000B11D8093F6039093F703A093F803B093E9
:103F7000F9030E944B19681979098A099B09A30161
:103F800092010E94A129A90163E082EF93E00E94BF
:103F90002A1100933404D7C0813091F540912C044C
:103FA00050912D0460912E0470912F049E012F5F7B
:103FB0003F4F82EF93E00E940415182F823009F0E2
:103FC000BEC089819A81AB81BC818093F6039093B6
:103FD000F703A093F803B093F9030E944B196819F3
:103FE00079098A099B09A30192010E94A129A901CB
:103FF00063E082EF93E00E942A1110933404A3C07F
:10400000823009F0A0C040912C0450912D046091A1
:104010002E0470912F049E012F5F3F4F82EF93E09B
:104020000E940415182F853009F087C0D0923404FF
:104030008091140490911504A0911604B091170476
:10404000892B8A2B8B2B61F484E893E0A0E0B0E00D
:104050008093140490931504A0931604B09317044E
:104060008091180490911904A0911A04B0911B0436
:10407000892B8A2B8B2BA1F4809114049091150429
:10408000A0911604B0911704B695A79597958795BA
:104090008093180490931904A0931A04B0931B04FE
:1040A00080911C0490911D04A0911E04B0911F04E6
:1040B000892B8A2B8B2BE9F48091140490911504A1
:1040C000A0911604B0911704AC01BD0133E07695C0
:1040D0006795579547953A95D1F7841B950BA60B95
:1040E000B70B80931C0490931D04A0931E04B093FF
:1040F0001F048091180490911904A0911A04B091A2
:104100001B048093200490932104A0932204B09375
:10411000230480911C0490911D04A0911E04B09171
:104120001F048093240490932504A0932604B09345
:104130002704EE24E394F12C06C0863011F01F3FD3
:1041400011F41092340491E0E916F10409F4CECE92
:104150000E944B19DC01CB0188199909AA09BB09F6
:10416000209128043091290440912A0450912B0475
:10417000281739074A075B0708F0B8CE85E394E0B3
:104180000E94920B8091F6039091F703A091F8039F
:10419000B091F9030196A11DB11D8093F603909390
:1041A000F703A093F803B093F9030E944B196093AF
:1041B0003004709331048093320490933304A1E06F
:1041C000EA16F10409F062C0CE0101960E94501C6B
:1041D00089819A810E9472036091F0037091F103CA
:1041E000625F7F4FCE0101960E94E617CE010396D3
:1041F0000E946A036091F0037091F1036A5E7F4F41
:10420000CE0101960E94E61744E050E0BE016D5FCA
:104210007F4F81E090E00E943E1A6091F003709120
:10422000F1036E5E7F4FCE0101960E94E61744E0D7
:1042300050E0BE016D5F7F4F85E090E00E943E1A26
:104240000E9471036091F0037091F103625E7F4FF1
:10425000CE0101960E94E6178B819C81AD81BE81C3
:1042600080938A0590938B05A0938C05B0938D0560
:104270000E94D3187F7380910601909107016827EF
:10428000792770930701609306016DC0EF2809F448
:1042900087CD69C0F0E0EE5EFE4F808181110DC0D8
:1042A00062E672E085EA94E00E94161161E070E037
:1042B00080E090E00E94F818F9CF0E94FB1A882352
:1042C00051F180914206843319F0873399F023C06D
:1042D000CE0101960E94501C89819A810E9472032E
:1042E00085E390E00E940B0D182F0E94710315FFCB
:1042F0002EC211C0CE0101960E94501C89819A8164
:104300000E9472038EE290E00E940B0D182F0E9413
:10431000710310FF1CC28BEF91E09A838983409157
:10432000D0055091D1056091D2057091D3054B8392
:104330005C836D837E83988B8F878091D605909167
:10434000D705A091D805B091D905898B9A8BAB8BF5
:10435000BC8BBE016F5F7F4FCE010F960E9487100E
:1043600068EA72E002C068EB72E085EA94E00E94BD
:10437000E41DCE0101960E949A04CE0101960E948E
:104380003E1C68EE73E080E090E00E94F81894EF25
:10439000892E99249394A12CB12C3E01B2E06B0E8E
:1043A000711C0E944B19672B682B692B41F40E94EA
:1043B0004B19623071058105910508F4F3C00E9424
:1043C0004B19009192041091930420919404309120
:1043D0009504601771078207930740F46093920475
:1043E00070939304809394049093950400919204A5
:1043F0001091930420919404309195046B017C01F9
:10440000C01AD10AE20AF30A970186010A3F110590
:104410002105310508F4C6C060939204709393049B
:104420008093940490939504809250059092510546
:10443000A0925205B0925305109254051092550562
:1044400010925605109257058091480590914905A4
:10445000A0914A05B0914B0580934C0590934D0572
:10446000A0934E05B0934F050E944B1960934805E9
:104470007093490580934A0590934B050E944B1910
:1044800060934405709345058093460590934705D6
:104490000E944B196B017C016CEC72E085EA94E0A0
:1044A0000E94E41D2AE041E050E060E070E085EA0F
:1044B00094E00E949B1D63ED72E085EA94E00E9407
:1044C000E41D2AE0B701A60185EA94E00E949B1D45
:1044D00065ED72E085EA94E00E94E41D8091480554
:1044E00090914905A0914A05B0914B05B701A601ED
:1044F000481B590B6A0B7B0B2AE085EA94E00E946B
:104500009B1D65ED72E085EA94E00E94E41D4091F8
:1045100048055091490560914A0570914B0580917D
:104520004C0590914D05A0914E05B0914F05481B4B
:10453000590B6A0B7B0B2AE085EA94E00E949B1DD5
:1045400067ED72E085EA94E00E94E41D0E944B1939
:10455000AB01BC012AE085EA94E00E949B1D69ED55
:1045600072E085EA94E00E9416110E944B191B012B
:104570002C016B017C0125E0C20ED11CE11CF11C59
:104580000E944B19621573058405950508F0E6C075
:104590000E944B19609348057093490580934A0522
:1045A00090934B051092E5051092E7051092E605F1
:1045B000E5EEF5E00DED15E012920E171F07E1F79D
:1045C0009091DA05E091DB05F091DC05F89421810A
:1045D000892F80952823218378943DE7315039F441
:1045E0001092E5051092E7051092E605A7C0A3E03A
:1045F000B0E01197F1F72081292381F3F89422810B
:10460000282322832181292B21837894ABE7B7E0EB
:104610001197F1F7F894218182238183A3E1B1E01E
:104620001197F1F780817894E3E6F6E03197F1F79E
:104630009823B1F688E0E82EF12CDD24D39481E0B4
:104640009D2D907F09F480E00E94AF14DD0C31E0D5
:10465000E31AF108A1F7F894E091DB05F091DC058D
:1046600091818091DA05809598239183E091DB0513
:10467000F091DC059281892382837894EE24E3947F
:10468000C12C512CFF24F3940E94DF14D82E0E94D9
:10469000DF1491E0D91203C08130C9F438C02C2D49
:1046A00030E0D8121FC08091E505F81638F4F90102
:1046B000E652FA4F83818E2151F402C08F1539F0F2
:1046C000D12CA8E0AF1568F0F092E6050AC0EC2DF9
:1046D000F0E0E652FA4F83818E298383DD24D39460
:1046E00009C05F2CF901E652FA4F93818E2D809517
:1046F000892383838D2D0E94AF14F394EE0C19F45B
:10470000C394EE24E394B7E0BC1508F0BDCFE0E419
:10471000EF1508F065CF5092E505511026C081E0F5
:104720008093E70522C0809191048E1709F445C05B
:1047300060EE72E085EA94E00E94161168EE73E084
:1047400080E090E00E94F8180E9476172ACE68E870
:1047500073E085EA94E00E941611DDCDC616D706F7
:10476000E806F90608F00CCF13CF8091DD05882309
:1047700009F436CF4AE854E082E994E0FA01D8011E
:104780002D918D0121938E179F07C9F798E0E0E0E6
:10479000915049F2DA018D91AD018E27E82FEF702B
:1047A000F0E0E859FF4F2491E82FE295EF70F0E038
:1047B000E858FF4FE491E227EBCF80918A041F92E3
:1047C0008F9380918B041F928F9380918C041F9202
:1047D0008F9380918D041F928F9380918E041F92EE
:1047E0008F9380918F041F928F93809190041F92DA
:1047F0008F931F92EF938CEE92E09F938F9388E5B7
:1048000094E09F938F930E949C2C68E574E085EA66
:1048100094E00E94E41D6BE273E085EA94E00E945C
:10482000E41D61E08BE00E944A1868EE73E080E0CE
:1048300090E00E94F81860E08BE00E944A188FEB2D
:1048400095E00E94DC020FB6F894DEBF0FBECDBF2C
:10485000892B49F08FEB95E00E949F02682F85EA33
:1048600094E00E9407170E944B196131774281053D
:10487000910508F463CF1B8E1A8E1D8E1C8E1F8E21
:104880001E8E60E070E0CE014A960E945F1D2A8D68
:104890003B8D81110DC02115310519F0C9010E9410
:1048A0001B2B1B8E1A8E1F8E1E8E1D8E1C8E07C0FC
:1048B0001F8E1E8E67EB73E0C9010E94952C4091FC
:1048C000A5055091A6056091A3057091A40584E902
:1048D00095E00E94E502892B09F4B3C064E173E01E
:1048E00084E995E00E94E41D66E873E084E995E0C0
:1048F0000E94E41D68E173E084E995E00E94E41DF4
:1049000061E273E084E995E00E94E41D09EA15E0A4
:10491000E12CF12C8091A7059091A805E816F906E5
:1049200094F4D8016D917D918D0184E995E00E9408
:10493000E41D6AE273E084E995E00E94E41DBFEFA4
:10494000EB1AFB0AE7CF6DE273E084E995E00E9481
:10495000E41D6091A3057091A40584E995E00E948F
:10496000E41D6AE273E084E995E00E94E41D64E3DB
:1049700073E084E995E00E94E41D6AE273E084E953
:1049800095E00E94E41D64E670E080E090E00E9403
:10499000F81800E010E0D12CF12CCC24C39484E969
:1049A00095E00E94C60F8823F1F184E995E00E940A
:1049B000DC02892BA1F384E995E00E949F028032FA
:1049C00051F0DD2029F00330110514F40F5F1F4F63
:1049D000FF2021F105C0FF2009F469C1DD24D39433
:1049E00089831A82EE8CFF8CEFEFEE1AFE0AB70174
:1049F000CE014A960E945F1D882369F02A8D3B8D67
:104A00008E8D9F8DBE016F5F7F4F820F931F0E941F
:104A1000952CFF8EEE8EFF24F394C1CF8A3009F0DF
:104A200041C1FC2CBACF1092A8051092A70584E9C9
:104A300095E00E94490262E370E080E090E00E940D
:104A4000F81868E473E085EA94E00E94E41D4E8D56
:104A50005F8D6A8D7B8D85EA94E00E94561C6AE228
:104A600073E085EA94E00E94861D80E094E00E9455
:104A7000832A009719F09C013C5F02C020E030E0DF
:104A80009B838A83398728874E8540784E879D830C
:104A90008C833F832E832E8D3F8D8A8D9B8D009737
:104AA00011F487EB93E0788A6F869A8B898B820F5B
:104AB000931F9C8B8B8B7E8A6D8A8AE08F8B198EDD
:104AC000BE01665F7F4FCE010F960E94560699A3E6
:104AD00088A3CE0180960E9448066CE573E0CE0163
:104AE0000A960E941906FC01892B41F094819F7758
:104AF0009450923018F4C080D18002C0C12CD12CC7
:104B000061E673E0CE010A960E941906FC01892B2A
:104B100041F094819F779450923018F4E080F180B6
:104B200002C0E12CF12C65E673E0CE010A960E94EA
:104B30001906FC01892B09F46DC094819F7796308A
:104B400061F018F4943000F565C09A3091F09C3013
:104B500009F442C0983009F05DC0008111812281C2
:104B600033810115F0E81F072105310508F454C011
:104B700051C00081118122813381013080E8180702
:104B800021053105C8F046C060817181CE010F96C4
:104B90000E94C4040F85188929893A898F898A302F
:104BA00029F08C30A1F08830A9F50AC0013090E8D6
:104BB00019072105310570F51195019511092CC0D2
:104BC0000115A0E81A072105310530F123C02B8813
:104BD0003C884D885E8804C02080318042805380AC
:104BE00020E030E040E057ECC201B1010E94712AA0
:104BF00087FD10C020E03EEF4FEF56E4C201B10147
:104C00000E947D28181634F0C201B1010E943B2A8F
:104C10008B0102C000E010E068E673E085EA94E0F2
:104C20000E94E41DB60185EA94E00E9416116FE629
:104C300073E085EA94E00E94E41DB70185EA94E000
:104C40000E94161168E773E085EA94E00E94E41D73
:104C50006801110FEE08FF08F7FE0EC06DE285EA4D
:104C600094E00E94071744275527BA014C195D09A3
:104C70006E097F092AE003C02AE0B701A60185EA90
:104C800094E00E949B1D6AE273E085EA94E00E9432
:104C9000861D8A819B810E941B2B8A8D9B8D0E9481
:104CA0001B2B4CCD8D3009F47ACEC12C78CEC12C83
:104CB000DD24D39474CECF92DF92EF92FF921092C4
:104CC000A8041092A70488EE93E0A0E0B0E08093DF
:104CD000A9049093AA04A093AB04B093AC048DE90B
:104CE00091E09093A6048093A50485EC90E09093C6
:104CF000B2048093B10484EC90E09093B404809368
:104D0000B30480EC90E09093B6048093B50481ECFA
:104D100090E09093B8048093B70482EC90E0909375
:104D2000BA048093B90486EC90E09093BC0480931D
:104D3000BB041092BE041092BF041092C0041092E3
:104D4000C104109248051092490510924A0510922C
:104D50004B0510924C0510924D0510924E05109285
:104D60004F05109250051092510510925205109265
:104D70005305109254051092550510925605109245
:104D800057058BEF91E09093E9058093E805109229
:104D9000EA051092EB051092EC051092ED05909348
:104DA000EF058093EE051092F0051092F105109238
:104DB000F2051092F3059093F5058093F405109297
:104DC000F6051092F7051092F8051092F9059093E8
:104DD000FB058093FA051092FC051092FD051092D8
:104DE000FE051092FF059093010680930006109235
:104DF0000206109203061092040610920506909384
:104E00000706809306061092080610920906109273
:104E10000A0610920B0690930D0680930C061092D2
:104E20000E0610920F061092100610921106909323
:104E300089058093880510928A0510928B0510923F
:104E40008C0510928D0590938F0580938E0510929E
:104E500090051092910510929205109293059093EF
:104E600013068093120610921406109215061092E3
:104E70001606109217069093190680931806109242
:104E80001A0610921B0610921C0610921D0660E076
:104E900082E00E949718E0EDF0E0E491E093DA05FB
:104EA000ECEBF0E0E491F0E0EE0FFF1FE055FF4F78
:104EB000859194919093DC058093DB051092E50534
:104EC0001092E7051092E605E5EEF5E0129285E016
:104ED000ED3DF807D9F72BEF31E03093D50520935E
:104EE000D40590EC9093D60588EA8093D70510926C
:104EF000D80541EB4093D9053093CF052093CE05DB
:104F00009093D0058093D1051092D20581E08093D3
:104F1000D3051092C2051092C10588EEC82E83E019
:104F2000D82EE12CF12CC092C305D092C405E0929A
:104F3000C505F092C6054DEC51E05093C005409375
:104F4000BF0524E02093CB0588EE93E09093CD0538
:104F50008093CC051092970510929605C092980503
:104F6000D0929905E0929A05F0929B055093950591
:104F7000409394052093A0059093A2058093A105EA
:104F80008FEB93E09093A4058093A30588EB9BE0BF
:104F90009093A6058093A5051092A8051092A705E9
:104FA0008DEC93E09093BE058093BD05FF90EF904C
:104FB000DF90CF9008958F929F92AF92BF92CF9241
:104FC000DF92EF92FF92CF93DF93EC0168817981BA
:104FD0008A819B81611571058105910521F464E247
:104FE00079ED8BE597E02DE133EF41E050E00E9451
:104FF000C32949015A019B01AC01A7EAB1E40E940F
:10500000E2296B017C01ACEEB4EFA50194010E9492
:10501000F029DC01CB018C0D9D1DAE1DBF1DB7FF1E
:1050200003C00197A109B04888839983AA83BB83F1
:10503000BC01CD019F77DF91CF91FF90EF90DF9082
:10504000CF90BF90AF909F908F9008958F929F9236
:10505000AF92BF92CF92DF92EF92FF9260910801E0
:105060007091090180910A0190910B016115710500
:105070008105910521F464E279ED8BE597E02DE15E
:1050800033EF41E050E00E94C32949015A019B01DE
:10509000AC01A7EAB1E40E94E2296B017C01ACEE0D
:1050A000B4EFA50194010E94F029DC01CB018C0D25
:1050B0009D1DAE1DBF1DB7FF03C00197A109B048DC
:1050C0008093080190930901A0930A01B0930B010A
:1050D000BC01CD019F77FF90EF90DF90CF90BF9004
:1050E000AF909F908F90089560930801709309018D
:1050F00080930A0190930B0108950E94BF2808F441
:1051000081E00895E89409C097FB3EF4909580955E
:10511000709561957F4F8F4F9F4F9923A9F0F92F7D
:1051200096E9BB279395F695879577956795B795FB
:10513000F111F8CFFAF4BB0F11F460FF1BC06F5FE1
:105140007F4F8F4F9F4F16C0882311F096E911C0F3
:10515000772321F09EE8872F762F05C0662371F014
:1051600096E8862F70E060E02AF09A95660F771F28
:10517000881FDAF7880F9695879597F90895990F04
:105180000008550FAA0BE0E8FEEF16161706E80711
:10519000F907C0F012161306E407F50798F0621B32
:1051A000730B840B950B39F40A2661F0232B242B07
:1051B000252B21F408950A2609F4A140A6958FEF26
:1051C000811D811D08950E94F6280C9467290E9474
:1051D000592938F00E94602920F0952311F00C9491
:1051E00050290C94562911240C949B290E9478294B
:1051F00070F3959FC1F3950F50E0551F629FF0012A
:10520000729FBB27F00DB11D639FAA27F00DB11D42
:10521000AA1F649F6627B00DA11D661F829F2227CB
:10522000B00DA11D621F739FB00DA11D621F839F52
:10523000A00D611D221F749F3327A00D611D231F28
:10524000849F600D211D822F762F6A2F11249F5776
:1052500050409AF0F1F088234AF0EE0FFF1FBB1F79
:10526000661F771F881F91505040A9F79E3F510538
:1052700080F00C9450290C949B295F3FE4F3983EF6
:10528000D4F3869577956795B795F795E7959F5FE2
:10529000C1F7FE2B880F911D9695879597F9089574
:1052A00097F99F6780E870E060E008959FEF80ECD9
:1052B000089500240A94161617061806090608957C
:1052C00000240A9412161306140605060895092EE2
:1052D0000394000C11F4882352F0BB0F40F4BF2B51
:1052E00011F460FF04C06F5F7F4F8F4F9F4F089591
:1052F00057FD9058440F551F59F05F3F71F0479587
:10530000880F97FB991F61F09F3F79F0879508956B
:10531000121613061406551FF2CF4695F1DF08C08A
:10532000161617061806991FF1CF869571056105A7
:1053300008940895E894BB2766277727CB0197F94F
:105340000895A1E21A2EAA1BBB1BFD010DC0AA1FC6
:10535000BB1FEE1FFF1FA217B307E407F50720F0DE
:10536000A21BB30BE40BF50B661F771F881F991F59
:105370001A9469F760957095809590959B01AC01A2
:10538000BD01CF010895052E97FB1EF400940E94E5
:10539000DA2957FD07D00E94A12907FC03D04EF45B
:1053A0000C94DA2950954095309521953F4F4F4FF9
:1053B0005F4F089590958095709561957F4F8F4FC1
:1053C0009F4F08950E942C2AA59F900DB49F900D89
:1053D000A49F800D911D11240895B7FF0C94E2291C
:1053E0000E94E229821B930B08952F923F924F92C5
:1053F0005F926F927F928F929F92AF92BF92CF9265
:10540000DF92EF92FF920F931F93CF93DF93CDB76D
:10541000DEB7CA1BDB0B0FB6F894DEBF0FBECDBFE5
:1054200009942A88398848885F846E847D848C84B6
:105430009B84AA84B984C884DF80EE80FD800C81BF
:105440001B81AA81B981CE0FD11D0FB6F894DEBFA2
:105450000FBECDBFED010895A29FB001B39FC00163
:10546000A39F700D811D1124911DB29F700D811D90
:105470001124911D08950E94422A6894B1110C9440
:105480009B2908950E94802988F09F5798F0B92F92
:105490009927B751B0F0E1F0660F771F881F991F69
:1054A0001AF0BA95C9F714C0B13091F00E949A2948
:1054B000B1E008950C949A29672F782F8827B85F58
:1054C00039F0B93FCCF3869577956795B395D9F7C1
:1054D0003EF490958095709561957F4F8F4F9F4FCB
:1054E00008950E94BF2808F48FEF08956927962732
:1054F00069277827872778270895EE0FFF1F0590E3
:10550000F491E02D09940F931F93CF93DF93823092
:10551000910510F482E090E0E0914506F091460696
:1055200020E030E0A0E0B0E0309719F140815181F7
:105530000281138148175907C8F08417950769F449
:10554000109731F012960C93129713961C9327C064
:10555000009345061093460622C02115310519F027
:105560004217530718F49A01BD01EF01DF01F8015A
:10557000DBCF21153105F9F0281B390B243031051B
:1055800080F48A819B816115710521F0FB01938371
:10559000828304C09093460680934506FE013296AE
:1055A00044C0FE01E20FF31F819391932250310911
:1055B000398328833AC02091430630914406232B37
:1055C00041F420910E0130910F0130934406209355
:1055D000430620910C0130910D012115310541F454
:1055E0002DB73EB74091100150911101241B350B8E
:1055F000E0914306F0914406E217F307A0F42E1B56
:105600003F0B2817390778F0AC014E5F5F4F241726
:10561000350748F04E0F5F1F5093440640934306F2
:105620008193919302C0E0E0F0E0CF01DF91CF9150
:105630001F910F910895CF93DF93009709F481C0D4
:10564000FC01329713821282A0914506B091460662
:10565000109781F420813181820F931F209143069E
:10566000309144062817390751F5F0934406E0932A
:10567000430667C0ED0120E030E0CE17DF0740F4BD
:105680004A815B819E0141155105F1F0EA01F5CF98
:10569000D383C28340815181840F951FC817D907D6
:1056A00059F488819981840F951F02969183808394
:1056B0008A819B81938382832115310529F4F0939C
:1056C0004606E09345063DC0E901FB83EA83499124
:1056D0005991C40FD51FEC17FD0761F480819181AA
:1056E000840F951F0296E9019983888382819381B3
:1056F0009B838A83E0E0F0E012968D919C91139752
:10570000009719F0FD01DC01F7CF8D919C91119765
:105710009D012E5F3F4F820F931F209143063091D2
:1057200044062817390769F4309729F41092460681
:105730001092450602C013821282B0934406A093D1
:105740004306DF91CF910895A0E0B0E0EAEAFBE2E2
:105750000C94F929EC01009721F4CB010E94832AD3
:10576000B4C0FC01E60FF71F9C0122503109E2177B
:10577000F30708F4A8C0D9010D911C9111970617E1
:105780001707B0F00530110508F49BC0C801049755
:105790008617970708F495C002501109061B170BCE
:1057A000019311936D937C93CF010E941B2B89C0B1
:1057B0005B01A01AB10A4C01800E911EA091450612
:1057C000B0914606612C712CE12CF12C109709F454
:1057D00046C08D919C911197A815B905B1F56C0142
:1057E00042E0C40ED11CCA14DB0478F14C018A18C3
:1057F0009B08640142E0C40ED11C1296BC90129723
:105800001396AC91B5E0CB16D10440F0B282A383DD
:1058100091828082D9016D937C9309C00E5F1F4FE6
:10582000800F911FF90191838083EB2DFA2FE114F2
:10583000F10431F0D7011396FC93EE93129741C017
:10584000F0934606E09345063CC06816790608F4D6
:105850003C017D0112960D90BC91A02DB7CF809197
:1058600043069091440688169906E1F46616770679
:10587000C8F480910C0190910D01009741F48DB70F
:105880009EB74091100150911101841B950BE817B0
:10589000F907C8F4F0934406E0934306F9017183D5
:1058A00060830FC0CB010E94832A7C01009759F0CE
:1058B000A801BE010E947C2CCE010E941B2BC701B7
:1058C00004C0CE0102C080E090E0CDB7DEB7EEE0CC
:1058D0000C94152A81E090E0F8940C944F2FFB0172
:1058E000DC0104C08D910190801921F44150504099
:1058F000C8F7881B990B0895FB01DC0102C00190D9
:105900000D9241505040D8F70895DC0101C06D93CD
:1059100041505040E0F70895FB01DC018D9101906A
:1059200080190110D9F3990B0895FB01DC01019056
:105930000D920020E1F70895AEE0B0E0E2EAFCE26B
:105940000C94032A0D891E8986E08C831A830983AF
:105950008FEF9FE79E838D83AE01475E5F4F6F8918
:10596000788DCE0101960E94BE2CEF81F885E00F64
:10597000F11F10822E96E4E00C941F2AABE0B0E0F9
:10598000E4ECFCE20C94F5296C017B018A01FC013A
:1059900017821682838181FFCCC1CE0101963C0122
:1059A000F6019381F70193FD859193FF81917F012A
:1059B000882309F4BAC1853239F493FD859193FFA8
:1059C00081917F01853229F4B60190E00E94B52EC5
:1059D000E7CF912C212C312CFFE1F315D8F08B323D
:1059E00079F038F4803279F08332A1F4232D2061EC
:1059F0001DC08D3261F0803369F4232D216016C003
:105A0000832D8260382EE32DE4603E2E2AC0F32DD4
:105A1000F8601DC037FC2DC020ED280F2A3040F063
:105A20008E32B9F436FC81C1232D2064322E19C088
:105A300036FE06C08AE0989E200D1124922E11C0D9
:105A4000EAE02E9E200D1124222EF32DF0623F2E2F
:105A500008C08C3621F4832D8068382E02C0883629
:105A600041F4F70193FD859193FF81917F018111AD
:105A7000B3CF982F9F7D9554933028F40C5F1F4F20
:105A80009FE399830DC0833631F0833771F08335FE
:105A900009F059C021C0F801808189830E5F1F4F32
:105AA00088248394912C530113C02801F2E04F0EF7
:105AB000511CF801A080B18036FE03C0692D70E052
:105AC00002C06FEF7FEFC5010E94AA2E4C01820138
:105AD000F32DFF773F2E16C0280122E0420E511C05
